{
  "contractName": "Companies",
  "abi": [
    {
      "inputs": [
        {
          "internalType": "string",
          "name": "_CompanyName",
          "type": "string"
        },
        {
          "internalType": "uint256",
          "name": "_CompanyID",
          "type": "uint256"
        },
        {
          "internalType": "address",
          "name": "_CompanyOwner",
          "type": "address"
        },
        {
          "internalType": "string",
          "name": "_Country",
          "type": "string"
        },
        {
          "internalType": "address",
          "name": "_hardwareWallet",
          "type": "address"
        },
        {
          "internalType": "string",
          "name": "_logoURI",
          "type": "string"
        }
      ],
      "stateMutability": "nonpayable",
      "type": "constructor"
    },
    {
      "anonymous": false,
      "inputs": [
        {
          "indexed": true,
          "internalType": "address",
          "name": "owner",
          "type": "address"
        },
        {
          "indexed": true,
          "internalType": "address",
          "name": "approved",
          "type": "address"
        },
        {
          "indexed": true,
          "internalType": "uint256",
          "name": "tokenId",
          "type": "uint256"
        }
      ],
      "name": "Approval",
      "type": "event"
    },
    {
      "anonymous": false,
      "inputs": [
        {
          "indexed": true,
          "internalType": "address",
          "name": "owner",
          "type": "address"
        },
        {
          "indexed": true,
          "internalType": "address",
          "name": "operator",
          "type": "address"
        },
        {
          "indexed": false,
          "internalType": "bool",
          "name": "approved",
          "type": "bool"
        }
      ],
      "name": "ApprovalForAll",
      "type": "event"
    },
    {
      "anonymous": false,
      "inputs": [
        {
          "indexed": true,
          "internalType": "address",
          "name": "previousOwner",
          "type": "address"
        },
        {
          "indexed": true,
          "internalType": "address",
          "name": "newOwner",
          "type": "address"
        }
      ],
      "name": "OwnershipTransferred",
      "type": "event"
    },
    {
      "anonymous": false,
      "inputs": [
        {
          "indexed": true,
          "internalType": "address",
          "name": "from",
          "type": "address"
        },
        {
          "indexed": true,
          "internalType": "address",
          "name": "to",
          "type": "address"
        },
        {
          "indexed": true,
          "internalType": "uint256",
          "name": "tokenId",
          "type": "uint256"
        }
      ],
      "name": "Transfer",
      "type": "event"
    },
    {
      "inputs": [],
      "name": "CarbonEmitted",
      "outputs": [
        {
          "internalType": "uint256",
          "name": "",
          "type": "uint256"
        }
      ],
      "stateMutability": "view",
      "type": "function"
    },
    {
      "inputs": [],
      "name": "CompanyID",
      "outputs": [
        {
          "internalType": "uint256",
          "name": "",
          "type": "uint256"
        }
      ],
      "stateMutability": "view",
      "type": "function"
    },
    {
      "inputs": [],
      "name": "CompanyName",
      "outputs": [
        {
          "internalType": "string",
          "name": "",
          "type": "string"
        }
      ],
      "stateMutability": "view",
      "type": "function"
    },
    {
      "inputs": [],
      "name": "CompanyOwner",
      "outputs": [
        {
          "internalType": "address",
          "name": "",
          "type": "address"
        }
      ],
      "stateMutability": "view",
      "type": "function"
    },
    {
      "inputs": [],
      "name": "Country",
      "outputs": [
        {
          "internalType": "string",
          "name": "",
          "type": "string"
        }
      ],
      "stateMutability": "view",
      "type": "function"
    },
    {
      "inputs": [
        {
          "internalType": "address",
          "name": "to",
          "type": "address"
        },
        {
          "internalType": "uint256",
          "name": "tokenId",
          "type": "uint256"
        }
      ],
      "name": "approve",
      "outputs": [],
      "stateMutability": "nonpayable",
      "type": "function"
    },
    {
      "inputs": [
        {
          "internalType": "address",
          "name": "owner",
          "type": "address"
        }
      ],
      "name": "balanceOf",
      "outputs": [
        {
          "internalType": "uint256",
          "name": "",
          "type": "uint256"
        }
      ],
      "stateMutability": "view",
      "type": "function"
    },
    {
      "inputs": [
        {
          "internalType": "uint256",
          "name": "tokenId",
          "type": "uint256"
        }
      ],
      "name": "getApproved",
      "outputs": [
        {
          "internalType": "address",
          "name": "",
          "type": "address"
        }
      ],
      "stateMutability": "view",
      "type": "function"
    },
    {
      "inputs": [],
      "name": "hardwareWallet",
      "outputs": [
        {
          "internalType": "address",
          "name": "",
          "type": "address"
        }
      ],
      "stateMutability": "view",
      "type": "function"
    },
    {
      "inputs": [
        {
          "internalType": "address",
          "name": "owner",
          "type": "address"
        },
        {
          "internalType": "address",
          "name": "operator",
          "type": "address"
        }
      ],
      "name": "isApprovedForAll",
      "outputs": [
        {
          "internalType": "bool",
          "name": "",
          "type": "bool"
        }
      ],
      "stateMutability": "view",
      "type": "function"
    },
    {
      "inputs": [],
      "name": "logoURI",
      "outputs": [
        {
          "internalType": "string",
          "name": "",
          "type": "string"
        }
      ],
      "stateMutability": "view",
      "type": "function"
    },
    {
      "inputs": [],
      "name": "name",
      "outputs": [
        {
          "internalType": "string",
          "name": "",
          "type": "string"
        }
      ],
      "stateMutability": "view",
      "type": "function"
    },
    {
      "inputs": [],
      "name": "owner",
      "outputs": [
        {
          "internalType": "address",
          "name": "",
          "type": "address"
        }
      ],
      "stateMutability": "view",
      "type": "function"
    },
    {
      "inputs": [
        {
          "internalType": "uint256",
          "name": "tokenId",
          "type": "uint256"
        }
      ],
      "name": "ownerOf",
      "outputs": [
        {
          "internalType": "address",
          "name": "",
          "type": "address"
        }
      ],
      "stateMutability": "view",
      "type": "function"
    },
    {
      "inputs": [],
      "name": "renounceOwnership",
      "outputs": [],
      "stateMutability": "nonpayable",
      "type": "function"
    },
    {
      "inputs": [
        {
          "internalType": "address",
          "name": "from",
          "type": "address"
        },
        {
          "internalType": "address",
          "name": "to",
          "type": "address"
        },
        {
          "internalType": "uint256",
          "name": "tokenId",
          "type": "uint256"
        }
      ],
      "name": "safeTransferFrom",
      "outputs": [],
      "stateMutability": "nonpayable",
      "type": "function"
    },
    {
      "inputs": [
        {
          "internalType": "address",
          "name": "from",
          "type": "address"
        },
        {
          "internalType": "address",
          "name": "to",
          "type": "address"
        },
        {
          "internalType": "uint256",
          "name": "tokenId",
          "type": "uint256"
        },
        {
          "internalType": "bytes",
          "name": "data",
          "type": "bytes"
        }
      ],
      "name": "safeTransferFrom",
      "outputs": [],
      "stateMutability": "nonpayable",
      "type": "function"
    },
    {
      "inputs": [
        {
          "internalType": "address",
          "name": "operator",
          "type": "address"
        },
        {
          "internalType": "bool",
          "name": "approved",
          "type": "bool"
        }
      ],
      "name": "setApprovalForAll",
      "outputs": [],
      "stateMutability": "nonpayable",
      "type": "function"
    },
    {
      "inputs": [
        {
          "internalType": "bytes4",
          "name": "interfaceId",
          "type": "bytes4"
        }
      ],
      "name": "supportsInterface",
      "outputs": [
        {
          "internalType": "bool",
          "name": "",
          "type": "bool"
        }
      ],
      "stateMutability": "view",
      "type": "function"
    },
    {
      "inputs": [],
      "name": "symbol",
      "outputs": [
        {
          "internalType": "string",
          "name": "",
          "type": "string"
        }
      ],
      "stateMutability": "view",
      "type": "function"
    },
    {
      "inputs": [
        {
          "internalType": "uint256",
          "name": "tokenId",
          "type": "uint256"
        }
      ],
      "name": "tokenURI",
      "outputs": [
        {
          "internalType": "string",
          "name": "",
          "type": "string"
        }
      ],
      "stateMutability": "view",
      "type": "function"
    },
    {
      "inputs": [
        {
          "internalType": "address",
          "name": "from",
          "type": "address"
        },
        {
          "internalType": "address",
          "name": "to",
          "type": "address"
        },
        {
          "internalType": "uint256",
          "name": "tokenId",
          "type": "uint256"
        }
      ],
      "name": "transferFrom",
      "outputs": [],
      "stateMutability": "nonpayable",
      "type": "function"
    },
    {
      "inputs": [
        {
          "internalType": "address",
          "name": "newOwner",
          "type": "address"
        }
      ],
      "name": "transferOwnership",
      "outputs": [],
      "stateMutability": "nonpayable",
      "type": "function"
    },
    {
      "inputs": [
        {
          "internalType": "uint256",
          "name": "_CarbonEmitted",
          "type": "uint256"
        }
      ],
      "name": "SetCarbonEmitted",
      "outputs": [],
      "stateMutability": "nonpayable",
      "type": "function"
    }
  ],
  "bytecode": "0x60806040523480156200001157600080fd5b506040516200185738038062001857833981016040819052620000349162000325565b604080518082018252600781526626bcaa37b5b2b760c91b6020808301918252835180850190945260038452624d544b60e81b9084015281519192916200007e9160009162000195565b5080516200009490600190602084019062000195565b505050620000b1620000ab6200013f60201b60201c565b62000143565b8551620000c690600790602089019062000195565b506008859055600980546001600160a01b0319166001600160a01b0386161790558251620000fc90600a90602086019062000195565b50600b80546001600160a01b0319166001600160a01b0384161790556000600c5580516200013290600d90602084019062000195565b5050505050505062000421565b3390565b600680546001600160a01b038381166001600160a01b0319831681179093556040519116919082907f8be0079c531659141344cd1fd0a4f28419497f9722a3daafe3b4186f6b6457e090600090a35050565b828054620001a390620003e4565b90600052602060002090601f016020900481019282620001c7576000855562000212565b82601f10620001e257805160ff191683800117855562000212565b8280016001018555821562000212579182015b8281111562000212578251825591602001919060010190620001f5565b506200022092915062000224565b5090565b5b8082111562000220576000815560010162000225565b634e487b7160e01b600052604160045260246000fd5b600082601f8301126200026357600080fd5b81516001600160401b03808211156200028057620002806200023b565b604051601f8301601f19908116603f01168101908282118183101715620002ab57620002ab6200023b565b81604052838152602092508683858801011115620002c857600080fd5b600091505b83821015620002ec5785820183015181830184015290820190620002cd565b83821115620002fe5760008385830101525b9695505050505050565b80516001600160a01b03811681146200032057600080fd5b919050565b60008060008060008060c087890312156200033f57600080fd5b86516001600160401b03808211156200035757600080fd5b620003658a838b0162000251565b9750602089015196506200037c60408a0162000308565b955060608901519150808211156200039357600080fd5b620003a18a838b0162000251565b9450620003b160808a0162000308565b935060a0890151915080821115620003c857600080fd5b50620003d789828a0162000251565b9150509295509295509295565b600181811c90821680620003f957607f821691505b602082108114156200041b57634e487b7160e01b600052602260045260246000fd5b50919050565b61142680620004316000396000f3fe608060405234801561001057600080fd5b50600436106101585760003560e01c80638cc98e7d116100c3578063c87b56dd1161007c578063c87b56dd146102af578063ce112ef0146102c2578063e985e9c5146102cb578063e9edf4cd14610307578063efed8d8a1461031a578063f2fde38b1461032d57600080fd5b80638cc98e7d1461025f5780638da5cb5b1461026857806395d89b4114610279578063a22cb46514610281578063aff65cfe14610294578063b88d4fde1461029c57600080fd5b806342842e0e1161011557806342842e0e146101f55780636352211e146102085780636586d9ae1461021b5780636bb38b281461022e57806370a0823114610236578063715018a61461025757600080fd5b806301ffc9a71461015d57806306fdde0314610185578063081812fc1461019a578063095ea7b3146101c5578063218fd1c4146101da57806323b872dd146101e2575b600080fd5b61017061016b366004610fa9565b610340565b60405190151581526020015b60405180910390f35b61018d610392565b60405161017c919061101e565b6101ad6101a8366004611031565b610424565b6040516001600160a01b03909116815260200161017c565b6101d86101d3366004611066565b61044b565b005b61018d610566565b6101d86101f0366004611090565b6105f4565b6101d8610203366004611090565b610625565b6101ad610216366004611031565b610640565b6101d8610229366004611031565b6106a0565b61018d6106bc565b6102496102443660046110cc565b6106c9565b60405190815260200161017c565b6101d861074f565b610249600c5481565b6006546001600160a01b03166101ad565b61018d610763565b6101d861028f3660046110e7565b610772565b61018d610781565b6101d86102aa366004611139565b61078e565b61018d6102bd366004611031565b6107c6565b61024960085481565b6101706102d9366004611215565b6001600160a01b03918216600090815260056020908152604080832093909416825291909152205460ff1690565b600b546101ad906001600160a01b031681565b6009546101ad906001600160a01b031681565b6101d861033b3660046110cc565b61083a565b60006001600160e01b031982166380ac58cd60e01b148061037157506001600160e01b03198216635b5e139f60e01b145b8061038c57506301ffc9a760e01b6001600160e01b03198316145b92915050565b6060600080546103a190611248565b80601f01602080910402602001604051908101604052809291908181526020018280546103cd90611248565b801561041a5780601f106103ef5761010080835404028352916020019161041a565b820191906000526020600020905b8154815290600101906020018083116103fd57829003601f168201915b5050505050905090565b600061042f826108b3565b506000908152600460205260409020546001600160a01b031690565b600061045682610640565b9050806001600160a01b0316836001600160a01b031614156104c95760405162461bcd60e51b815260206004820152602160248201527f4552433732313a20617070726f76616c20746f2063757272656e74206f776e656044820152603960f91b60648201526084015b60405180910390fd5b336001600160a01b03821614806104e557506104e581336102d9565b6105575760405162461bcd60e51b815260206004820152603d60248201527f4552433732313a20617070726f76652063616c6c6572206973206e6f7420746f60448201527f6b656e206f776e6572206f7220617070726f76656420666f7220616c6c00000060648201526084016104c0565b6105618383610912565b505050565b6007805461057390611248565b80601f016020809104026020016040519081016040528092919081815260200182805461059f90611248565b80156105ec5780601f106105c1576101008083540402835291602001916105ec565b820191906000526020600020905b8154815290600101906020018083116105cf57829003601f168201915b505050505081565b6105fe3382610980565b61061a5760405162461bcd60e51b81526004016104c090611283565b6105618383836109ff565b6105618383836040518060200160405280600081525061078e565b6000818152600260205260408120546001600160a01b03168061038c5760405162461bcd60e51b8152602060048201526018602482015277115490cdcc8c4e881a5b9d985b1a59081d1bdad95b88125160421b60448201526064016104c0565b600b546001600160a01b031633146106b757600080fd5b600c55565b600d805461057390611248565b60006001600160a01b0382166107335760405162461bcd60e51b815260206004820152602960248201527f4552433732313a2061646472657373207a65726f206973206e6f7420612076616044820152683634b21037bbb732b960b91b60648201526084016104c0565b506001600160a01b031660009081526003602052604090205490565b610757610b63565b6107616000610bbd565b565b6060600180546103a190611248565b61077d338383610c0f565b5050565b600a805461057390611248565b6107983383610980565b6107b45760405162461bcd60e51b81526004016104c090611283565b6107c084848484610cde565b50505050565b60606107d1826108b3565b60006107e860408051602081019091526000815290565b905060008151116108085760405180602001604052806000815250610833565b8061081284610d11565b6040516020016108239291906112d0565b6040516020818303038152906040525b9392505050565b610842610b63565b6001600160a01b0381166108a75760405162461bcd60e51b815260206004820152602660248201527f4f776e61626c653a206e6577206f776e657220697320746865207a65726f206160448201526564647265737360d01b60648201526084016104c0565b6108b081610bbd565b50565b6000818152600260205260409020546001600160a01b03166108b05760405162461bcd60e51b8152602060048201526018602482015277115490cdcc8c4e881a5b9d985b1a59081d1bdad95b88125160421b60448201526064016104c0565b600081815260046020526040902080546001600160a01b0319166001600160a01b038416908117909155819061094782610640565b6001600160a01b03167f8c5be1e5ebec7d5bd14f71427d1e84f3dd0314c0f7b2291e5b200ac8c7c3b92560405160405180910390a45050565b60008061098c83610640565b9050806001600160a01b0316846001600160a01b031614806109d357506001600160a01b0380821660009081526005602090815260408083209388168352929052205460ff165b806109f75750836001600160a01b03166109ec84610424565b6001600160a01b0316145b949350505050565b826001600160a01b0316610a1282610640565b6001600160a01b031614610a385760405162461bcd60e51b81526004016104c0906112ff565b6001600160a01b038216610a9a5760405162461bcd60e51b8152602060048201526024808201527f4552433732313a207472616e7366657220746f20746865207a65726f206164646044820152637265737360e01b60648201526084016104c0565b826001600160a01b0316610aad82610640565b6001600160a01b031614610ad35760405162461bcd60e51b81526004016104c0906112ff565b600081815260046020908152604080832080546001600160a01b03199081169091556001600160a01b0387811680865260038552838620805460001901905590871680865283862080546001019055868652600290945282852080549092168417909155905184937fddf252ad1be2c89b69c2b068fc378daa952ba7f163c4a11628f55a4df523b3ef91a4505050565b6006546001600160a01b031633146107615760405162461bcd60e51b815260206004820181905260248201527f4f776e61626c653a2063616c6c6572206973206e6f7420746865206f776e657260448201526064016104c0565b600680546001600160a01b038381166001600160a01b0319831681179093556040519116919082907f8be0079c531659141344cd1fd0a4f28419497f9722a3daafe3b4186f6b6457e090600090a35050565b816001600160a01b0316836001600160a01b03161415610c715760405162461bcd60e51b815260206004820152601960248201527f4552433732313a20617070726f766520746f2063616c6c65720000000000000060448201526064016104c0565b6001600160a01b03838116600081815260056020908152604080832094871680845294825291829020805460ff191686151590811790915591519182527f17307eab39ab6107e8899845ad3d59bd9653f200f220920489ca2b5937696c31910160405180910390a3505050565b610ce98484846109ff565b610cf584848484610dae565b6107c05760405162461bcd60e51b81526004016104c090611344565b60606000610d1e83610ebb565b600101905060008167ffffffffffffffff811115610d3e57610d3e611123565b6040519080825280601f01601f191660200182016040528015610d68576020820181803683370190505b5090508181016020015b600019016f181899199a1a9b1b9c1cb0b131b232b360811b600a86061a8153600a8504945084610da157610da6565b610d72565b509392505050565b60006001600160a01b0384163b15610eb057604051630a85bd0160e11b81526001600160a01b0385169063150b7a0290610df2903390899088908890600401611396565b602060405180830381600087803b158015610e0c57600080fd5b505af1925050508015610e3c575060408051601f3d908101601f19168201909252610e39918101906113d3565b60015b610e96573d808015610e6a576040519150601f19603f3d011682016040523d82523d6000602084013e610e6f565b606091505b508051610e8e5760405162461bcd60e51b81526004016104c090611344565b805181602001fd5b6001600160e01b031916630a85bd0160e11b1490506109f7565b506001949350505050565b60008072184f03e93ff9f4daa797ed6e38ed64bf6a1f0160401b8310610efa5772184f03e93ff9f4daa797ed6e38ed64bf6a1f0160401b830492506040015b6d04ee2d6d415b85acef81000000008310610f26576d04ee2d6d415b85acef8100000000830492506020015b662386f26fc100008310610f4457662386f26fc10000830492506010015b6305f5e1008310610f5c576305f5e100830492506008015b6127108310610f7057612710830492506004015b60648310610f82576064830492506002015b600a831061038c5760010192915050565b6001600160e01b0319811681146108b057600080fd5b600060208284031215610fbb57600080fd5b813561083381610f93565b60005b83811015610fe1578181015183820152602001610fc9565b838111156107c05750506000910152565b6000815180845261100a816020860160208601610fc6565b601f01601f19169290920160200192915050565b6020815260006108336020830184610ff2565b60006020828403121561104357600080fd5b5035919050565b80356001600160a01b038116811461106157600080fd5b919050565b6000806040838503121561107957600080fd5b6110828361104a565b946020939093013593505050565b6000806000606084860312156110a557600080fd5b6110ae8461104a565b92506110bc6020850161104a565b9150604084013590509250925092565b6000602082840312156110de57600080fd5b6108338261104a565b600080604083850312156110fa57600080fd5b6111038361104a565b91506020830135801515811461111857600080fd5b809150509250929050565b634e487b7160e01b600052604160045260246000fd5b6000806000806080858703121561114f57600080fd5b6111588561104a565b93506111666020860161104a565b925060408501359150606085013567ffffffffffffffff8082111561118a57600080fd5b818701915087601f83011261119e57600080fd5b8135818111156111b0576111b0611123565b604051601f8201601f19908116603f011681019083821181831017156111d8576111d8611123565b816040528281528a60208487010111156111f157600080fd5b82602086016020830137600060208483010152809550505050505092959194509250565b6000806040838503121561122857600080fd5b6112318361104a565b915061123f6020840161104a565b90509250929050565b600181811c9082168061125c57607f821691505b6020821081141561127d57634e487b7160e01b600052602260045260246000fd5b50919050565b6020808252602d908201527f4552433732313a2063616c6c6572206973206e6f7420746f6b656e206f776e6560408201526c1c881bdc88185c1c1c9bdd9959609a1b606082015260800190565b600083516112e2818460208801610fc6565b8351908301906112f6818360208801610fc6565b01949350505050565b60208082526025908201527f4552433732313a207472616e736665722066726f6d20696e636f72726563742060408201526437bbb732b960d91b606082015260800190565b60208082526032908201527f4552433732313a207472616e7366657220746f206e6f6e20455243373231526560408201527131b2b4bb32b91034b6b83632b6b2b73a32b960711b606082015260800190565b6001600160a01b03858116825284166020820152604081018390526080606082018190526000906113c990830184610ff2565b9695505050505050565b6000602082840312156113e557600080fd5b815161083381610f9356fea2646970667358221220fcc944617234b9f7d2eb31b0320a61d041393124becf2b98b881b67e8161891064736f6c63430008090033",
  "immutableReferences": {},
  "source": "// SPDX-License-Identifier: MIT\npragma solidity ^0.8.9;\n\nimport \"@openzeppelin/contracts/access/Ownable.sol\";\nimport \"@openzeppelin/contracts/token/ERC721/ERC721.sol\";\nimport \"@openzeppelin/contracts/token/ERC721/extensions/ERC721URIStorage.sol\";\n\ncontract Companies is ERC721, Ownable {\n    string public CompanyName;\n    uint256 public CompanyID;\n    address public CompanyOwner;\n    string public Country;\n    address public hardwareWallet;\n    uint256 public CarbonEmitted;\n    string public logoURI;\n\n    constructor(string memory _CompanyName, uint256 _CompanyID, address _CompanyOwner, string memory _Country, address _hardwareWallet, string memory _logoURI) ERC721(\"MyToken\", \"MTK\") {\n        CompanyName = _CompanyName;\n        CompanyID = _CompanyID;\n        CompanyOwner = _CompanyOwner;\n        Country = _Country;\n        hardwareWallet = _hardwareWallet;\n        CarbonEmitted = 0;\n        logoURI = _logoURI;\n    }\n\n    modifier OnlyHardware {\n        require(msg.sender == hardwareWallet);\n        _;\n    }\n\n    function SetCarbonEmitted(uint256 _CarbonEmitted) public OnlyHardware{\n        CarbonEmitted = _CarbonEmitted;\n    }\n}",
  "sourcePath": "/home/henriquemarlon/Desktop/hackathon-suicida/blockchain/contracts/Companies.sol",
  "compiler": {
    "name": "solc",
    "version": "0.8.9+commit.e5eed63a.Emscripten.clang"
  },
  "schemaVersion": "3.4.13",
  "updatedAt": "2023-05-15T03:02:57.071Z",
  "devdoc": {
    "kind": "dev",
    "methods": {
      "approve(address,uint256)": {
        "details": "See {IERC721-approve}."
      },
      "balanceOf(address)": {
        "details": "See {IERC721-balanceOf}."
      },
      "getApproved(uint256)": {
        "details": "See {IERC721-getApproved}."
      },
      "isApprovedForAll(address,address)": {
        "details": "See {IERC721-isApprovedForAll}."
      },
      "name()": {
        "details": "See {IERC721Metadata-name}."
      },
      "owner()": {
        "details": "Returns the address of the current owner."
      },
      "ownerOf(uint256)": {
        "details": "See {IERC721-ownerOf}."
      },
      "renounceOwnership()": {
        "details": "Leaves the contract without owner. It will not be possible to call `onlyOwner` functions anymore. Can only be called by the current owner. NOTE: Renouncing ownership will leave the contract without an owner, thereby removing any functionality that is only available to the owner."
      },
      "safeTransferFrom(address,address,uint256)": {
        "details": "See {IERC721-safeTransferFrom}."
      },
      "safeTransferFrom(address,address,uint256,bytes)": {
        "details": "See {IERC721-safeTransferFrom}."
      },
      "setApprovalForAll(address,bool)": {
        "details": "See {IERC721-setApprovalForAll}."
      },
      "supportsInterface(bytes4)": {
        "details": "See {IERC165-supportsInterface}."
      },
      "symbol()": {
        "details": "See {IERC721Metadata-symbol}."
      },
      "tokenURI(uint256)": {
        "details": "See {IERC721Metadata-tokenURI}."
      },
      "transferFrom(address,address,uint256)": {
        "details": "See {IERC721-transferFrom}."
      },
      "transferOwnership(address)": {
        "details": "Transfers ownership of the contract to a new account (`newOwner`). Can only be called by the current owner."
      }
    },
    "version": 1
  },
  "userdoc": {
    "kind": "user",
    "methods": {},
    "version": 1
  }
}